S0180000536F6674776172655F50726F6A6563742E737265638B
S11300000C942A000C943F000C943F000C943F0085
S11300100C943F000C943F000C943F000C943F0060
S11300200C943F000C943F000C943F000C943F0050
S11300300C943F000C943F000C943F000C943F0040
S11300400C943F000C943F000C943F000C943F0030
S11300500C943F0011241FBECFE5D8E0DEBFCDBF16
S113006010E0A0E6B0E0E4ECF4E002C005900D92EC
S1130070AA38B107D9F70E94A1000C9460020C942D
S11300800000882319F0813031F0089561E086E1A1
S11300900E94C901089561E087E10E94C9010895A1
S11300A0882319F0813031F0089560E086E10E94E0
S11300B0C901089560E087E10E94C9010895CF93C2
S11300C0DF93EDEC8E9FE12D1124DE2FD695D6958E
S11300D0D695DD0F9D2F990F990FD90F8D1BD82F12
S11300E0CE2FC695C695C69580E00E94410081E05A
S11300F00E945000ED2FF0E0E058FF4F6081660F42
S113010080E00E9450028FE39CE90197F1F700C060
S1130110000081E00E94410080E00E945000EC2F2A
S1130120F0E0E058FF4F6081660F80E00E945002CB
S11301308FE39CE90197F1F700C00000DF91CF91B4
S113014008950E94B90185E00E945F002FEF8DE3BE
S113015099E4215080409040E1F700C0000087E01E
S11301600E945F002FEF8DE399E42150804090407E
S1130170E1F700C00000E7CF982F969596959695E5
S11301808770613009F455C020F0623009F4A1C0D1
S113019008959130C1F028F0923039F19330B9F1DB
S11301A008954AB321E030E0B90102C0660F771F19
S11301B08A95E2F7CB018095942F98239ABB9BB341
S11301C089238BBB089547B321E030E0B90102C015
S11301D0660F771F8A95E2F7CB018095942F9823B9
S11301E097BB98B3892388BB089544B321E030E0DA
S11301F0B90102C0660F771F8A95E2F7CB0180959B
S1130200942F982394BB95B3892385BB089541B358
S113021021E030E0B90102C0660F771F8A95E2F74A
S1130220CB018095942F982391BB92B3892382BBF1
S113023008959130C1F028F0923039F19330B9F13A
S113024008954AB321E030E0B90102C0660F771F78
S11302508A95E2F7CB01962F909594239ABB9BB392
S1130260892B8BBB089547B321E030E0B90102C06C
S1130270660F771F8A95E2F7CB01962F909594230A
S113028097BB98B3892B88BB089544B321E030E031
S1130290B90102C0660F771F8A95E2F7CB01962F4A
S11302A09095942394BB95B3892B85BB089541B352
S11302B021E030E0B90102C0660F771F8A95E2F7AA
S11302C0CB01962F9095942391BB92B3892B82BB3B
S11302D008959130C1F028F0923039F19330B9F19A
S11302E008954AB321E030E0B90102C0660F771FD8
S11302F08A95E2F7CB01942F982B9ABB9BB38095F8
S113030089238BBB089547B321E030E0B90102C0D3
S1130310660F771F8A95E2F7CB01942F982B97BB32
S113032098B38095892388BB089544B321E030E0D5
S1130330B90102C0660F771F8A95E2F7CB01942FAB
S1130340982B94BB95B38095892385BB089541B3BD
S113035021E030E0B90102C0660F771F8A95E2F709
S1130360CB01942F982B91BB92B38095892382BBA8
S11303700895CF93C0E009C0EC2FF0E0E05AFF4F9E
S113038060818C2F0E94BC00CF5FC032A8F3CF9154
S11303900895982F9695969596958770662321F0E3
S11303A0613009F441C008959130A1F028F09230F1
S11303B0F9F0933059F108954BB321E030E0B901DD
S11303C002C0660F771F8A95E2F7CB0180958423DC
S11303D08BBB089548B321E030E0B90102C0660F39
S11303E0771F8A95E2F7CB018095842388BB089513
S11303F045B321E030E0B90102C0660F771F8A954A
S1130400E2F7CB018095842385BB089542B321E0B4
S113041030E0B90102C0660F771F8A95E2F7CB017D
S11304208095842382BB0895913099F028F092300E
S1130430E9F0933041F108954BB321E030E0B90184
S113044002C0660F771F8A95E2F7CB01842B8BBB22
S1130450089548B321E030E0B90102C0660F771F68
S11304608A95E2F7CB01842B88BB089545B321E03C
S113047030E0B90102C0660F771F8A95E2F7CB011D
S1130480842B85BB089542B321E030E0B90102C05A
S1130490660F771F8A95E2F7CB01842B82BB089500
S11304A0813041F028F0823039F0833039F00895FA
S11304B06BBB089568BB089565BB089562BB08953E
S10704C0F894FFCFDA
S11304C40202020202020202020202020202020204
S11304D402020202020202020202010101010202F8
S10D04E43F065B4F666D7D077F6FD6
S9030000FC
